S0160000766F74696E67206D616368696E652E7372656382
S11300000C942A000C9447000C9447000C9447006D
S11300100C9447000C9447000C9447000C94470040
S11300200C9447000C9447000C9447000C94470030
S11300300C9447000C9447000C9447000C94470020
S11300400C9447000C9447000C9447000C94470010
S11300500C94470011241FBECFE5D8E0DEBFCDBF0E
S113006010E0A0E6B0E0ECE9F9E002C005900D92E2
S1130070A036B107D9F710E0A0E6B0E001C01D92A8
S1130080A036B107E1F70E940F040C94CC040C9441
S1130090000040E00E94500008950E94BF010895AE
S11300A0843409F471C0853448F4823499F183347A
S11300B008F04DC0813409F083C00FC0823651F17D
S11300C0833620F4813609F07BC007C0833609F4F7
S11300D03EC0843609F074C057C0413069F42AB375
S11300E081E090E0AC0102C0440F551F6A95E2F72D
S11300F0BA01622B6ABB08952AB381E090E0AC0197
S113010002C0440F551F6A95E2F7BA016095622355
S11301106ABB0895413069F427B381E090E0AC01F3
S113012002C0440F551F6A95E2F7BA01622B67BB00
S1130130089527B381E090E0AC0102C0440F551F3D
S11301406A95E2F7BA016095622367BB089541306E
S113015069F424B381E090E0AC0102C0440F551F60
S11301606A95E2F7BA01622B64BB089524B381E077
S113017090E0AC0102C0440F551F6A95E2F7BA0142
S11301806095622364BB0895413069F427B381E02C
S113019090E0AC0102C0440F551F6A95E2F7BA0122
S11301A0622B67BB089527B381E090E0AC0102C0E5
S11301B0440F551F6A95E2F7BA016095622367BB45
S11301C00895843409F471C0853448F4823499F173
S11301D0833408F04DC0813409F083C00FC08236E7
S11301E051F1833620F4813609F07BC007C0833691
S11301F009F43EC0843609F074C057C0413069F434
S11302002BB381E090E0AC0102C0440F551F6A9506
S1130210E2F7BA01622B6BBB08952BB381E090E047
S1130220AC0102C0440F551F6A95E2F7BA0160950C
S113023062236BBB0895413069F428B381E090E0F8
S1130240AC0102C0440F551F6A95E2F7BA01622B54
S113025068BB089528B381E090E0AC0102C0440F6C
S1130260551F6A95E2F7BA016095622368BB089549
S1130270413069F425B381E090E0AC0102C0440F41
S1130280551F6A95E2F7BA01622B65BB089525B341
S113029081E090E0AC0102C0440F551F6A95E2F77B
S11302A0BA016095622365BB0895413069F422B3B5
S11302B081E090E0AC0102C0440F551F6A95E2F75B
S11302C0BA01622B62BB089522B381E090E0AC01D5
S11302D002C0440F551F6A95E2F7BA016095622384
S11302E062BB0895843409F43DC0853440F48234FB
S11302F0F9F0833450F5813409F040C00CC08236E3
S1130300B9F0833618F48136C9F505C08336E9F0AF
S11303108436A1F527C02BB381E090E0AC0102C084
S1130320440F551F6A95E2F7BA0162276BBB089523
S113033028B381E090E0AC0102C0440F551F6A95D8
S1130340E2F7BA01622768BB089525B381E090E023
S1130350AC0102C0440F551F6A95E2F7BA01622747
S113036065BB089522B381E090E0AC0102C0440F64
S1130370551F6A95E2F7BA01622762BB0895843477
S113038009F44EC0853440F4823431F18334B0F53D
S1130390813409F057C00EC08236F1F0833620F460
S11303A0813609F04FC006C0833641F1843609F026
S11303B049C036C029B381E090E0062E02C0880F00
S11303C0991F0A94E2F730E08223932302C09595A3
S11303D087956A95E2F7089526B381E090E0062EAA
S11303E002C0880F991F0A94E2F730E08223932316
S11303F002C0959587956A95E2F7089523B381E045
S113040090E0062E02C0880F991F0A94E2F730E0AC
S11304108223932302C0959587956A95E2F7089500
S113042020B381E090E0062E02C0880F991F0A9441
S1130430E2F730E08223932302C0959587956A956D
S1130440E2F7089580E008958434D9F0853438F4CF
S1130450823499F0833498F48134A1F40CC0823648
S113046061F0833618F4813669F405C0833639F0B7
S1130470843641F406C06ABB089567BB089564BB23
S1130480089561BB0895823461F0833418F4813493
S113049069F405C0833439F0843441F406C06BBB7D
S11304A0089568BB089565BB089562BB08958234BE
S11304B061F0833418F4813471F405C0833439F065
S11304C0843449F406C089B3089586B3089583B388
S11304D0089580B3089580E00895843409F471C0C8
S11304E0853448F4823499F1833408F04DC0813462
S11304F009F083C00FC0823651F1833620F481366F
S113050009F07BC007C0833609F43EC0843609F085
S113051074C057C0413069F44BB321E030E0C901E5
S1130520062E02C0880F991F0A94E2F7842B8BBB16
S113053010C04BB321E030E0C901062E02C0880F81
S1130540991F0A94E2F7809584238BBB0FC0413036
S113055069F428B381E090E0AC0102C0440F551F58
S11305606A95E2F7BA01622B68BB089528B381E06B
S113057090E0AC0102C0440F551F6A95E2F7BA013E
S11305806095622368BB0895413069F425B381E026
S113059090E0AC0102C0440F551F6A95E2F7BA011E
S11305A0622B65BB089525B381E090E0AC0102C0E5
S11305B0440F551F6A95E2F7BA016095622365BB43
S11305C00895413069F422B381E090E0AC0102C0A7
S11305D0440F551F6A95E2F7BA01622B62BB089576
S11305E022B381E090E0AC0102C0440F551F6A952C
S11305F0E2F7BA016095622362BB08956F70843498
S113060051F1853438F48234C1F08334E8F4813410
S113061041F50CC0823689F0833618F4813609F529
S113062005C0833689F08436E1F415C08BB3807F2E
S11306308BBB8BB3682B6BBB089588B3807F88BB5F
S113064088B3682B68BB089582B3807F82BB82B372
S1130650682B62BB089582B3807F82BB82B3682B10
S113066062BB08956295607F843451F1853438F417
S11306708234C1F08334E8F4813441F50CC082360D
S113068089F0833618F4813609F505C0833689F07C
S11306908436E1F415C08BB38F708BBB8BB3682B9E
S11306A06BBB089588B38F7088BB88B3682B68BB15
S11306B0089582B38F7082BB82B3682B62BB0895A6
S11306C082B38F7082BB82B3682B62BB089582E4CD
S11306D060E041E00E94E1008FE99FE00197F1F7BB
S11306E000C0000082E460E040E00E94E100089560
S11306F0682F81E40E94430282E461E041E00E94A9
S1130700E1000E9467030895682F81E40E94430278
S113071082E461E040E00E94E1000E9467038FEC04
S113072097E00197F1F700C00000089581E00E946E
S113073084038FE19EE40197F1F700C0000008955F
S11307408FEF91EEA4E081509040A040E1F700C00B
S1130750000081E461E00E94240282E461E041E05F
S11307600E94500082E460E041E00E94500082E474
S113077062E041E00E945000AFECB7E01197F1F75E
S113078000C0000088E30E9484038FEC97E0019787
S1130790F1F700C000008EE00E948403AFECB7E0E4
S11307A01197F1F700C000000E9496038FE19EE4C8
S11307B00197F1F700C0000086E00E948403AFECCB
S11307C0B7E01197F1F700C000000895982F9150F9
S11307D0923020F4662311F0613120F080E80E9409
S11307E084030895813029F4862F81580E9484035C
S11307F00895823021F4862F81540E948403089541
S1130800CF93DF93EC018881882331F021960E94F5
S1130810780389918823D9F7DF91CF91089582E4F1
S113082063E00E94490082E464E00E94490082E49B
S113083065E00E94490082E466E00E94490082E487
S113084067E00E9449000E94A00381E40E947803AB
S11308508DE30E94780380E30E94780381E06CE0DA
S11308600E94E60382E40E9478038DE30E947803E9
S113087080E30E94780382E061E00E94E60383E45F
S11308800E9478038DE30E94780380E30E9478033A
S113089082E06CE00E94E60384E40E9478038DE326
S11308A00E94780380E30E947803FF24EE2482E40C
S11308B063E00E944D00813059F41C2F1F5F63E0F8
S11308C00E94E6038C2F8F5C0E947803C12F5AC0CC
S11308D082E464E00E944D00813059F41D2F1F5FB3
S11308E06EE00E94E6038D2F8F5C0E947803D12F67
S11308F049C082E465E00E944D00813061F4102F0C
S11309001F5F82E063E00E94E603802F8F5C0E94F9
S11309107803012F37C082E466E00E944D008130E5
S113092061F41F2D1F5F82E06EE00E94E6038F2DAD
S11309308F5C0E947803F12E25C082E467E00E9458
S11309404D008130F9F463E00E94E60380E30E94E5
S1130950780381E06EE00E94E60380E30E9478035E
S113096082E063E00E94E60380E30E94780382E071
S11309706EE00E94E60380E30E947803FE2C0E2DB5
S1130980DE2DCE2D8FEF95EAAEE081509040A04051
S10F0990E1F700C000008BCFF894FFCF0B
S9030000FC
