:100000000C942A000C9447000C9447000C94470071
:100010000C9447000C9447000C9447000C94470044
:100020000C9447000C9447000C9447000C94470034
:100030000C9447000C9447000C9447000C94470024
:100040000C9447000C9447000C9447000C94470014
:100050000C94470011241FBECFE5D8E0DEBFCDBF12
:1000600010E0A0E6B0E0EAEBFBE002C005900D92E4
:10007000A836B107D9F710E0A8E6B0E001C01D929C
:10008000A836B107E1F70E945B040C94DB050C94E1
:1000900000003E9A3F9A379A329A319A0895369ADA
:1000A000349BFECF349A84B190E045B1342F20E0E8
:1000B000822B932B0895843409F471C0853448F45D
:1000C000823499F1833408F04DC0813409F083C043
:1000D0000FC0823651F1833620F4813609F07BC09F
:1000E00007C0833609F43EC0843609F074C057C097
:1000F000413069F42AB381E090E0AC0102C0440FC2
:10010000551F6A95E2F7BA01622B6ABB08952AB3BC
:1001100081E090E0AC0102C0440F551F6A95E2F700
:10012000BA01609562236ABB0895413069F427B330
:1001300081E090E0AC0102C0440F551F6A95E2F7E0
:10014000BA01622B67BB089527B381E090E0AC0150
:1001500002C0440F551F6A95E2F7BA016095622309
:1001600067BB0895413069F424B381E090E0AC01AD
:1001700002C0440F551F6A95E2F7BA01622B64BBB7
:10018000089524B381E090E0AC0102C0440F551FF4
:100190006A95E2F7BA016095622364BB0895413025
:1001A00069F427B381E090E0AC0102C0440F551F11
:1001B0006A95E2F7BA01622B67BB089527B381E025
:1001C00090E0AC0102C0440F551F6A95E2F7BA01F6
:1001D0006095622367BB0895843409F471C0853447
:1001E00048F4823499F1833408F04DC0813409F029
:1001F00083C00FC0823651F1833620F4813609F076
:100200007BC007C0833609F43EC0843609F074C051
:1002100057C0413069F42BB381E090E0AC0102C0DB
:10022000440F551F6A95E2F7BA01622B6BBB089524
:100230002BB381E090E0AC0102C0440F551F6A95DA
:10024000E2F7BA01609562236BBB0895413069F40F
:1002500028B381E090E0AC0102C0440F551F6A95BD
:10026000E2F7BA01622B68BB089528B381E090E001
:10027000AC0102C0440F551F6A95E2F7BA016095C0
:10028000622368BB0895413069F425B381E090E0B2
:10029000AC0102C0440F551F6A95E2F7BA01622B08
:1002A00065BB089525B381E090E0AC0102C0440F26
:1002B000551F6A95E2F7BA016095622365BB089500
:1002C000413069F422B381E090E0AC0102C0440FF8
:1002D000551F6A95E2F7BA01622B62BB089522B3FB
:1002E00081E090E0AC0102C0440F551F6A95E2F72F
:1002F000BA016095622362BB0895843409F43DC05D
:10030000853440F48234F9F0833450F5813409F0B7
:1003100040C00CC08236B9F0833618F48136C9F576
:1003200005C08336E9F08436A1F527C02BB381E000
:1003300090E0AC0102C0440F551F6A95E2F7BA0184
:1003400062276BBB089528B381E090E0AC0102C046
:10035000440F551F6A95E2F7BA01622768BB0895FA
:1003600025B381E090E0AC0102C0440F551F6A95AF
:10037000E2F7BA01622765BB089522B381E090E0FD
:10038000AC0102C0440F551F6A95E2F7BA0162271B
:1003900062BB0895843409F44EC0853440F482343D
:1003A00031F18334B0F5813409F057C00EC0823684
:1003B000F1F0833620F4813609F04FC006C0833651
:1003C00041F1843609F049C036C029B381E090E09C
:1003D000062E02C0880F991F0A94E2F730E08223AC
:1003E000932302C0959587956A95E2F7089526B301
:1003F00081E090E0062E02C0880F991F0A94E2F770
:1004000030E08223932302C0959587956A95E2F7A1
:10041000089523B381E090E0062E02C0880F991F53
:100420000A94E2F730E08223932302C095958795E2
:100430006A95E2F7089520B381E090E0062E02C0AD
:10044000880F991F0A94E2F730E08223932302C0B9
:10045000959587956A95E2F7089580E0089584342C
:10046000D9F0853438F4823499F0833498F48134A7
:10047000A1F40CC0823661F0833618F4813669F439
:1004800005C0833639F0843641F406C06ABB08954E
:1004900067BB089564BB089561BB0895823461F021
:1004A000833418F4813469F405C0833439F084341A
:1004B00041F406C06BBB089568BB089565BB089501
:1004C00062BB0895823461F0833418F4813471F48E
:1004D00005C0833439F0843449F406C089B30895E3
:1004E00086B3089583B3089580B3089580E0089596
:1004F000843409F471C0853448F4823499F183342A
:1005000008F04DC0813409F083C00FC0823651F12C
:10051000833620F4813609F07BC007C0833609F4A6
:100520003EC0843609F074C057C0413069F44BB303
:1005300021E030E0C901062E02C0880F991F0A94FD
:10054000E2F7842B8BBB10C04BB321E030E0C90134
:10055000062E02C0880F991F0A94E2F78095842323
:100560008BBB0FC0413069F428B381E090E0AC014F
:1005700002C0440F551F6A95E2F7BA01622B68BBAF
:10058000089528B381E090E0AC0102C0440F551FEC
:100590006A95E2F7BA016095622368BB089541301D
:1005A00069F425B381E090E0AC0102C0440F551F0F
:1005B0006A95E2F7BA01622B65BB089525B381E025
:1005C00090E0AC0102C0440F551F6A95E2F7BA01F2
:1005D0006095622365BB0895413069F422B381E0E0
:1005E00090E0AC0102C0440F551F6A95E2F7BA01D2
:1005F000622B62BB089522B381E090E0AC0102C09F
:10060000440F551F6A95E2F7BA016095622362BBF9
:1006100008956F70843451F1853438F48234C1F018
:100620008334E8F4813441F50CC0823689F0833696
:1006300018F4813609F505C0833689F08436E1F473
:1006400015C08BB3807F8BBB8BB3682B6BBB0895BE
:1006500088B3807F88BB88B3682B68BB089582B35A
:10066000807F82BB82B3682B62BB089582B3807F98
:1006700082BB82B3682B62BB08956295607F84342D
:1006800051F1853438F48234C1F08334E8F4813494
:1006900041F50CC0823689F0833618F4813609F5AD
:1006A00005C0833689F08436E1F415C08BB38F70B2
:1006B0008BBB8BB3682B6BBB089588B38F7088BBE3
:1006C00088B3682B68BB089582B38F7082BB82B3F6
:1006D000682B62BB089582B38F7082BB82B3682B94
:1006E00062BB089582E460E041E00E94EC008FE983
:1006F0009FE00197F1F700C0000082E460E040E075
:100700000E94EC000895CF93C82F682F62956F70F8
:1007100084E490E070E00E94090382E461E041E03B
:100720000E94EC000E94720384E490E06C2F70E061
:100730000E94090382E461E041E00E94EC000E9413
:100740007203CF910895CF93C82F682F62956F7071
:1007500084E490E070E00E94090382E461E040E0FC
:100760000E94EC000E94720384E490E06C2F70E021
:100770000E94090382E461E040E00E94EC000E94D4
:1007800072038FEC97E00197F1F700C00000CF9162
:10079000089581E00E94A3038FE19EE40197F1F7A1
:1007A00000C0000008958FEF91EEA4E081509040CA
:1007B000A040E1F700C0000084E460E041E00E9456
:1007C0005B0084E461E041E00E945B0084E462E05D
:1007D00041E00E945B0084E463E041E00E945B0032
:1007E00082E461E041E00E945B0082E460E041E07D
:1007F0000E945B0082E462E041E00E945B00AFEC9B
:10080000B7E01197F1F700C0000082E00E94A30357
:100810008FE19EE40197F1F700C0000088E20E949A
:10082000A303AFECB7E01197F1F700C000008EE032
:100830000E94A3038FEC97E00197F1F700C000003E
:100840000E94C903AFE1BEE41197F1F700C00000B8
:1008500086E00E94A3038FEC97E00197F1F700C0B8
:1008600000000895982F9150923020F4662311F0E3
:10087000613120F080E80E94A3030895813029F4BB
:10088000862F81580E94A3030895823021F4862F79
:1008900081540E94A3030895CF93DF93EC018881D4
:1008A000882331F021960E94830389918823D9F708
:1008B000DF91CF9108950E9449000E94D30380E602
:1008C00090E00E944C040AE010E00E944F00BC013E
:1008D00080E090E00E94D60420E030E040E85EE353
:1008E0000E943C050E94AA04DC01CB01EC018A3085
:1008F0009105A8F481E069E00E94320480E30E943F
:100900008303CE01B8010E94C705805D0E94830366
:100910008FED0E94830383E40E948303D6CF843645
:10092000910598F681E069E00E943204CE01B80199
:100930000E94C705C82F862F805D0E9483038C2FDD
:10094000805D0E9483038FED0E94830383E40E94F5
:100950008303BBCF70D088F09F5790F0B92F9927B1
:10096000B751A0F0D1F0660F771F881F991F1AF0BA
:10097000BA95C9F712C0B13081F077D0B1E00895CF
:1009800074C0672F782F8827B85F39F0B93FCCF350
:10099000869577956795B395D9F73EF490958095B0
:1009A000709561957F4F8F4F9F4F0895E89409C0D0
:1009B00097FB3EF490958095709561957F4F8F4F92
:1009C0009F4F9923A9F0F92F96E9BB279395F695A8
:1009D000879577956795B795F111F8CFFAF4BB0F26
:1009E00011F460FF1BC06F5F7F4F8F4F9F4F16C08A
:1009F000882311F096E911C0772321F09EE8872F14
:100A0000762F05C0662371F096E8862F70E060E0CF
:100A10002AF09A95660F771F881FDAF7880F969548
:100A2000879597F9089557FD9058440F551F59F031
:100A30005F3F71F04795880F97FB991F61F09F3FCB
:100A400079F087950895121613061406551FF2CFF4
:100A50004695F1DF08C0161617061806991FF1CF44
:100A600086957105610508940895E894BB2766276B
:100A70007727CB0197F908950BD078C069D028F07B
:100A80006ED018F0952309F05AC05FC01124EECF44
:100A9000CADFA0F3959FD1F3950F50E0551F629FD9
:100AA000F001729FBB27F00DB11D639FAA27F00DC7
:100AB000B11DAA1F649F6627B00DA11D661F829FEE
:100AC0002227B00DA11D621F739FB00DA11D621FD3
:100AD000839FA00D611D221F749F3327A00D611DF0
:100AE000231F849F600D211D822F762F6A2F1124D2
:100AF0009F5750408AF0E1F088234AF0EE0FFF1F25
:100B0000BB1F661F771F881F91505040A9F79E3F5B
:100B1000510570F014C0AACF5F3FECF3983EDCF3B0
:100B2000869577956795B795F795E7959F5FC1F798
:100B3000FE2B880F911D9695879597F9089597F943
:100B40009F6780E870E060E008959FEF80EC089573
:100B500000240A941616170618060906089500249C
:100B60000A9412161306140605060895092E039416
:100B7000000C11F4882352F0BB0F40F4BF2B11F48A
:100B800060FF04C06F5F7F4F8F4F9F4F0895AA1B78
:100B9000BB1B51E107C0AA1FBB1FA617B70710F068
:100BA000A61BB70B881F991F5A95A9F7809590959A
:0A0BB000BC01CD010895F894FFCFB9
:080BBA0074656D70203D200000
:00000001FF
