S018000073696D706C65206D6174682067616D652E73726563FE
S11300000C942A000C9447000C9447000C9447006D
S11300100C9447000C9447000C9447000C94470040
S11300200C9447000C9447000C940F050C94470063
S11300300C9447000C9447000C9447000C94470020
S11300400C9447000C9447000C9447000C94470010
S11300500C94470011241FBECFE5D8E0DEBFCDBF0E
S113006010E0A0E6B0E0E0E7FAE002C005900D92EF
S1130070AE39B107D9F710E0AEE9B0E001C01D9286
S1130080A23AB107E1F70E94B6040C9436050C9429
S11300900000843409F471C0853448F4823499F141
S11300A0833408F04DC0813409F083C00FC0823618
S11300B051F1833620F4813609F07BC007C08336C2
S11300C009F43EC0843609F074C057C0413069F465
S11300D02AB381E090E0AC0102C0440F551F6A9539
S11300E0E2F7BA01622B6ABB08952AB381E090E07B
S11300F0AC0102C0440F551F6A95E2F7BA0160953E
S113010062236ABB0895413069F427B381E090E02B
S1130110AC0102C0440F551F6A95E2F7BA01622B85
S113012067BB089527B381E090E0AC0102C0440F9F
S1130130551F6A95E2F7BA016095622367BB08957B
S1130140413069F424B381E090E0AC0102C0440F73
S1130150551F6A95E2F7BA01622B64BB089524B374
S113016081E090E0AC0102C0440F551F6A95E2F7AC
S1130170BA016095622364BB0895413069F427B3E2
S113018081E090E0AC0102C0440F551F6A95E2F78C
S1130190BA01622B67BB089527B381E090E0AC01FC
S11301A002C0440F551F6A95E2F7BA0160956223B5
S11301B067BB0895843409F471C0853448F48234EB
S11301C099F1833408F04DC0813409F083C00FC025
S11301D0823651F1833620F4813609F07BC007C0A2
S11301E0833609F43EC0843609F074C057C04130E8
S11301F069F42BB381E090E0AC0102C0440F551FB9
S11302006A95E2F7BA01622B6BBB08952BB381E0C8
S113021090E0AC0102C0440F551F6A95E2F7BA01A1
S1130220609562236BBB0895413069F428B381E083
S113023090E0AC0102C0440F551F6A95E2F7BA0181
S1130240622B68BB089528B381E090E0AC0102C042
S1130250440F551F6A95E2F7BA016095622368BBA3
S11302600895413069F425B381E090E0AC0102C007
S1130270440F551F6A95E2F7BA01622B65BB0895D6
S113028025B381E090E0AC0102C0440F551F6A958C
S1130290E2F7BA016095622365BB0895413069F4C1
S11302A022B381E090E0AC0102C0440F551F6A956F
S11302B0E2F7BA01622B62BB089522B381E090E0B9
S11302C0AC0102C0440F551F6A95E2F7BA0160956C
S11302D0622362BB0895843409F43DC0853440F43C
S11302E08234F9F0833450F5813409F040C00CC0F5
S11302F08236B9F0833618F48136C9F505C08336E1
S1130300E9F08436A1F527C02BB381E090E0AC017D
S113031002C0440F551F6A95E2F7BA0162276BBB0E
S1130320089528B381E090E0AC0102C0440F551F4A
S11303306A95E2F7BA01622768BB089525B381E0A4
S113034090E0AC0102C0440F551F6A95E2F7BA0170
S1130350622765BB089522B381E090E0AC0102C03E
S1130360440F551F6A95E2F7BA01622762BB0895EC
S1130370843409F44EC0853440F4823431F183343A
S1130380B0F5813409F057C00EC08236F1F08336DF
S113039020F4813609F04FC006C0833641F184361B
S11303A009F049C036C029B381E090E0062E02C0AE
S11303B0880F991F0A94E2F730E08223932302C046
S11303C0959587956A95E2F7089526B381E090E0C4
S11303D0062E02C0880F991F0A94E2F730E08223A8
S11303E0932302C0959587956A95E2F7089523B300
S11303F081E090E0062E02C0880F991F0A94E2F76C
S113040030E08223932302C0959587956A95E2F79D
S1130410089520B381E090E0062E02C0880F991F52
S11304200A94E2F730E08223932302C095958795DE
S11304306A95E2F7089580E008958434D9F085340C
S113044038F4823499F0833498F48134A1F40CC0E4
S1130450823661F0833618F4813669F405C0833638
S113046039F0843641F406C06ABB089567BB089529
S113047064BB089561BB0895823461F0833418F439
S1130480813469F405C0833439F0843441F406C0FE
S11304906BBB089568BB089565BB089562BB08955E
S11304A0823461F0833418F4813471F405C08334E8
S11304B039F0843449F406C089B3089586B30895A5
S11304C083B3089580B3089580E00895843409F4D3
S11304D071C0853448F4823499F1833408F04DC0F6
S11304E0813409F083C00FC0823651F1833620F481
S11304F0813609F07BC007C0833609F43EC08436D8
S113050009F074C057C0413069F44BB321E030E0C6
S1130510C901062E02C0880F991F0A94E2F7842BA2
S11305208BBB10C04BB321E030E0C901062E02C0E2
S1130530880F991F0A94E2F7809584238BBB0FC020
S1130540413069F428B381E090E0AC0102C0440F6B
S1130550551F6A95E2F7BA01622B68BB089528B368
S113056081E090E0AC0102C0440F551F6A95E2F7A8
S1130570BA016095622368BB0895413069F425B3DC
S113058081E090E0AC0102C0440F551F6A95E2F788
S1130590BA01622B65BB089525B381E090E0AC01FC
S11305A002C0440F551F6A95E2F7BA0160956223B1
S11305B065BB0895413069F422B381E090E0AC0159
S11305C002C0440F551F6A95E2F7BA01622B62BB61
S11305D0089522B381E090E0AC0102C0440F551F9E
S11305E06A95E2F7BA016095622362BB08956F7061
S11305F0843451F1853438F48234C1F08334E8F41E
S1130600813441F50CC0823689F0833618F4813682
S113061009F505C0833689F08436E1F415C08BB33F
S1130620807F8BBB8BB3682B6BBB089588B3807FB3
S113063088BB88B3682B68BB089582B3807F82BB74
S113064082B3682B62BB089582B3807F82BB82B37E
S1130650682B62BB08956295607F843451F18534C0
S113066038F48234C1F08334E8F4813441F50CC0A9
S1130670823689F0833618F4813609F505C083364D
S113068089F08436E1F415C08BB38F708BBB8BB3C8
S1130690682B6BBB089588B38F7088BB88B3682BB5
S11306A068BB089582B38F7082BB82B3682B62BB30
S11306B0089582B38F7082BB82B3682B62BB0895A6
S11306C081E46FE00E941D0281E464E041E00E9445
S11306D0660281E465E041E00E94660281E466E02E
S11306E041E00E94660281E467E041E00E94660204
S11306F008950F931F93CF93DF93CDB7DEB7609721
S11307000FB6F894DEBF0FBECDBFDE011196E0E652
S1130710F0E080E101900D928150E1F700E081E486
S113072060E041E00E94DA0081E461E041E00E947F
S1130730DA0081E462E041E00E94DA0081E463E0EF
S113074041E00E94DA0081E4602F40E00E94DA0078
S113075010E0612F6C5F81E40E94B801882361F48A
S1130760E02FF0E0EE0FFF1FEE0FFF1FE10FF11D72
S1130770EC0FFD1F818104C01F5F143051F70BC0C3
S113078060960FB6F894DEBF0FBECDBFDF91CF9158
S11307901F910F9108950F5F043009F68FEFF0CF8A
S11307A082E462E041E00E94DA008FE99FE0019771
S11307B0F1F700C0000082E462E040E00E94DA0049
S11307C00895CF93C82F682F62956F7082E40E94BA
S11307D02B0382E460E041E00E94DA000E94D0032F
S11307E082E46C2F0E942B0382E460E041E00E94CB
S11307F0DA000E94D003CF910895CF93C82F682FB9
S113080062956F7082E40E942B0382E460E040E012
S11308100E94DA000E94D00382E46C2F0E942B0312
S113082082E460E040E00E94DA000E94D0038FEC92
S113083097E00197F1F700C00000CF91089581E09F
S11308400E94FD038FE19EE40197F1F700C00000D0
S113085008958FEF91EEA4E081509040A040E1F71D
S113086000C0000082E464E041E00E94490082E4A8
S113087065E041E00E94490082E466E041E00E94B4
S1130880490082E467E041E00E94490082E460E0BC
S113089041E00E94490082E462E041E00E94490094
S11308A082E461E041E00E94490082E461E040E0CA
S11308B00E94DA00AFECB7E01197F1F700C0000036
S11308C082E00E94FD038FE19EE40197F1F700C0EE
S11308D0000088E20E94FD03AFECB7E01197F1F746
S11308E000C000008EE00E94FD038FEC97E00197AA
S11308F0F1F700C000000E941F04AFE1BEE41197AD
S1130900F1F700C0000086E00E94FD038FEC97E041
S11309100197F1F700C000000895982F915092308C
S113092020F4662311F0613120F080E80E94FD0379
S11309300895813029F4862F81580E94FD0308957B
S1130940823021F4862F81540E94FD030895CF93B1
S1130950DF93EC018881882331F021960E94E10322
S113096089918823D9F7DF91CF9108950F931F932D
S1130970CF930E9429040E94600380E790E00E94C4
S1130980A7040E94260501E010E08091A000909148
S1130990A10023E0883E920724F010939F00009367
S11309A09E000E947903C82F90E02FEF31EE44E0BF
S11309B0215030404040E1F700C000008F3F9105D6
S11309C069F480919E0090919F000097F1F20E943B
S11309D01F0486E790E00E94A7041BC0853391059D
S11309E049F482E061E00E948D0483E890E00E9473
S11309F0A7040FC081E06BE00E948D048C2F0E943D
S1130A00E10382E061E00E948D0480E990E00E94AD
S1130A10A70480E090E0CF911F910F9108951F9259
S1130A200F920FB60F9211248F939F938091A00081
S1130A309091A10001969093A1008093A0009F91B2
S1130A408F910F900FBE0F901F90189583B78860F9
S1130A5083BF8EE48CBF83B7816083BF83B7846018
S1130A6083BF789489B7826089BF0895F894FFCFD3
S1130A703738392F3435362A3132332D41303D2B36
S1130A80332B3F3D380074696D65206973206F76A0
S1130A90657200726967687420616E7377657200AD
S1110AA077726F6E6720616E73776572000067
S9030000FC
