S00C0000736166652E7372656379
S11300000C942A000C9447000C9447000C9447006D
S11300100C9447000C9447000C9447000C94470040
S11300200C9447000C9447000C9447000C94470030
S11300300C9447000C9447000C9447000C94470020
S11300400C9447000C9447000C9447000C94470010
S11300500C94470011241FBECFE5D8E0DEBFCDBF0E
S113006010E0A0E6B0E0E4E1FBE002C005900D92F0
S1130070A23DB107D9F710E0A2EDB0E001C01D9296
S1130080A63DB107E1F70E9485040C9488050C9401
S11300900000843409F471C0853448F4823499F141
S11300A0833408F04DC0813409F083C00FC0823618
S11300B051F1833620F4813609F07BC007C08336C2
S11300C009F43EC0843609F074C057C0413069F465
S11300D02AB381E090E0AC0102C0440F551F6A9539
S11300E0E2F7BA01622B6ABB08952AB381E090E07B
S11300F0AC0102C0440F551F6A95E2F7BA0160953E
S113010062236ABB0895413069F427B381E090E02B
S1130110AC0102C0440F551F6A95E2F7BA01622B85
S113012067BB089527B381E090E0AC0102C0440F9F
S1130130551F6A95E2F7BA016095622367BB08957B
S1130140413069F424B381E090E0AC0102C0440F73
S1130150551F6A95E2F7BA01622B64BB089524B374
S113016081E090E0AC0102C0440F551F6A95E2F7AC
S1130170BA016095622364BB0895413069F427B3E2
S113018081E090E0AC0102C0440F551F6A95E2F78C
S1130190BA01622B67BB089527B381E090E0AC01FC
S11301A002C0440F551F6A95E2F7BA0160956223B5
S11301B067BB0895843409F471C0853448F48234EB
S11301C099F1833408F04DC0813409F083C00FC025
S11301D0823651F1833620F4813609F07BC007C0A2
S11301E0833609F43EC0843609F074C057C04130E8
S11301F069F42BB381E090E0AC0102C0440F551FB9
S11302006A95E2F7BA01622B6BBB08952BB381E0C8
S113021090E0AC0102C0440F551F6A95E2F7BA01A1
S1130220609562236BBB0895413069F428B381E083
S113023090E0AC0102C0440F551F6A95E2F7BA0181
S1130240622B68BB089528B381E090E0AC0102C042
S1130250440F551F6A95E2F7BA016095622368BBA3
S11302600895413069F425B381E090E0AC0102C007
S1130270440F551F6A95E2F7BA01622B65BB0895D6
S113028025B381E090E0AC0102C0440F551F6A958C
S1130290E2F7BA016095622365BB0895413069F4C1
S11302A022B381E090E0AC0102C0440F551F6A956F
S11302B0E2F7BA01622B62BB089522B381E090E0B9
S11302C0AC0102C0440F551F6A95E2F7BA0160956C
S11302D0622362BB0895843409F43DC0853440F43C
S11302E08234F9F0833450F5813409F040C00CC0F5
S11302F08236B9F0833618F48136C9F505C08336E1
S1130300E9F08436A1F527C02BB381E090E0AC017D
S113031002C0440F551F6A95E2F7BA0162276BBB0E
S1130320089528B381E090E0AC0102C0440F551F4A
S11303306A95E2F7BA01622768BB089525B381E0A4
S113034090E0AC0102C0440F551F6A95E2F7BA0170
S1130350622765BB089522B381E090E0AC0102C03E
S1130360440F551F6A95E2F7BA01622762BB0895EC
S1130370843409F44EC0853440F4823431F183343A
S1130380B0F5813409F057C00EC08236F1F08336DF
S113039020F4813609F04FC006C0833641F184361B
S11303A009F049C036C029B381E090E0062E02C0AE
S11303B0880F991F0A94E2F730E08223932302C046
S11303C0959587956A95E2F7089526B381E090E0C4
S11303D0062E02C0880F991F0A94E2F730E08223A8
S11303E0932302C0959587956A95E2F7089523B300
S11303F081E090E0062E02C0880F991F0A94E2F76C
S113040030E08223932302C0959587956A95E2F79D
S1130410089520B381E090E0062E02C0880F991F52
S11304200A94E2F730E08223932302C095958795DE
S11304306A95E2F7089580E008958434D9F085340C
S113044038F4823499F0833498F48134A1F40CC0E4
S1130450823661F0833618F4813669F405C0833638
S113046039F0843641F406C06ABB089567BB089529
S113047064BB089561BB0895823461F0833418F439
S1130480813469F405C0833439F0843441F406C0FE
S11304906BBB089568BB089565BB089562BB08955E
S11304A0823461F0833418F4813471F405C08334E8
S11304B039F0843449F406C089B3089586B30895A5
S11304C083B3089580B3089580E00895843409F4D3
S11304D071C0853448F4823499F1833408F04DC0F6
S11304E0813409F083C00FC0823651F1833620F481
S11304F0813609F07BC007C0833609F43EC08436D8
S113050009F074C057C0413069F44BB321E030E0C6
S1130510C901062E02C0880F991F0A94E2F7842BA2
S11305208BBB10C04BB321E030E0C901062E02C0E2
S1130530880F991F0A94E2F7809584238BBB0FC020
S1130540413069F428B381E090E0AC0102C0440F6B
S1130550551F6A95E2F7BA01622B68BB089528B368
S113056081E090E0AC0102C0440F551F6A95E2F7A8
S1130570BA016095622368BB0895413069F425B3DC
S113058081E090E0AC0102C0440F551F6A95E2F788
S1130590BA01622B65BB089525B381E090E0AC01FC
S11305A002C0440F551F6A95E2F7BA0160956223B1
S11305B065BB0895413069F422B381E090E0AC0159
S11305C002C0440F551F6A95E2F7BA01622B62BB61
S11305D0089522B381E090E0AC0102C0440F551F9E
S11305E06A95E2F7BA016095622362BB08956F7061
S11305F0843451F1853438F48234C1F08334E8F41E
S1130600813441F50CC0823689F0833618F4813682
S113061009F505C0833689F08436E1F415C08BB33F
S1130620807F8BBB8BB3682B6BBB089588B3807FB3
S113063088BB88B3682B68BB089582B3807F82BB74
S113064082B3682B62BB089582B3807F82BB82B37E
S1130650682B62BB08956295607F843451F18534C0
S113066038F48234C1F08334E8F4813441F50CC0A9
S1130670823689F0833618F4813609F505C083364D
S113068089F08436E1F415C08BB38F708BBB8BB3C8
S1130690682B6BBB089588B38F7088BB88B3682BB5
S11306A068BB089582B38F7082BB82B3682B62BB30
S11306B0089582B38F7082BB82B3682B62BB0895A6
S11306C08EBB9FBB6DBBE29AE19AE199FECF089580
S11306D08EBB9FBBE09A8DB3089584E46FE00E94C3
S11306E01D0284E464E041E00E94660284E465E063
S11306F041E00E94660284E466E041E00E946602F2
S113070084E467E041E00E94660208950F931F931A
S1130710CF93DF93CDB7DEB760970FB6F894DEBF03
S11307200FBECDBFDE011196E0E6F0E080E101905E
S11307300D928150E1F700E084E460E041E00E9422
S1130740DA0084E461E041E00E94DA0084E462E0DB
S113075041E00E94DA0084E463E041E00E94DA00B0
S113076084E4602F40E00E94DA0010E0612F6C5FA7
S113077084E40E94B801882361F4E02FF0E0EE0FD6
S1130780FF1FEE0FFF1FE10FF11DEC0FFD1F818115
S113079004C01F5F143051F70BC060960FB6F89475
S11307A0DEBF0FBECDBFDF91CF911F910F91089592
S11307B00F5F043009F68FEFF0CF82E460E041E090
S11307C00E94DA008FE99FE00197F1F700C0000072
S11307D082E460E040E00E94DA000895682F81E43A
S11307E00E943C0282E461E041E00E94DA000E943F
S11307F0DD030895682F81E40E943C0282E461E0F5
S113080040E00E94DA000E94DD038FEC97E001973C
S1130810F1F700C00000089581E00E94FA038FE11F
S11308209EE40197F1F700C0000008958FEF91EE68
S1130830A4E081509040A040E1F700C0000081E4B2
S113084061E00E941D0282E461E041E00E944900EF
S113085082E460E041E00E94490082E462E041E019
S11308600E944900AFECB7E01197F1F700C0000017
S113087088E30E94FA038FEC97E00197F1F700C038
S113088000008EE00E94FA03AFECB7E01197F1F795
S113089000C000000E940C048FE19EE40197F1F770
S11308A000C0000086E00E94FA03AFECB7E01197A5
S11308B0F1F700C000000895982F9150923020F471
S11308C0662311F0613120F080E80E94FA03089554
S11308D0813029F4862F81580E94FA0308958230CA
S11308E021F4862F81540E94FA030895CF93DF9355
S11308F0EC018881882331F021960E94EE038991CE
S11309008823D9F7DF91CF9108952F923F924F9288
S11309105F926F927F928F929F92AF92BF92DF927B
S1130920EF92FF920F931F93CF93DF930E941604CD
S11309300E946D0380E20E9468038F3F59F580E7AF
S113094090E00E947604C1E2D0E00E948603182F52
S11309508F3FD9F30E94EE036C2F665181E00E9411
S11309605C048FEF94E3ACE081509040A040E1F749
S113097000C000008AE20E94EE03CE01612F0E94B3
S113098060032196C532D10501F780E290E060E072
S11309900E94600301E30F2EFBE7AF2EF0E0BF2EB1
S11309A0F02D0F2EF2EDEF2EF0E0FF2EF02D0F2E96
S11309B0FDE0DF2EF02D0F2EF3ED4F2EF0E05F2E35
S11309C0F02D0F2EF4ED2F2EF0E03F2EF02D0F2EF4
S11309D0F7EA8F2EF0E09F2EF02D0F2EF6EB6F2E00
S11309E0F0E07F2EF02D0E940C04C5010E947604D5
S11309F0E7011D2D0E94860388838F3FD9F30E944F
S1130A00EE038FEF94E3ACE081509040A040E1F717
S1130A1000C0000081E0612F0E945C048AE20E9411
S1130A20EE038FEF94E3ACE081509040A040E1F7F7
S1130A3000C000001F5F21961131E1F681E20E949F
S1130A406803D7019C91891729F582E20E94680303
S1130A50F20190818917F1F483E20E946803D101C5
S1130A609C918917B9F484E20E946803E5EDF0E0F3
S1130A709081891779F40E940C0488E890E00E9420
S1130A80760482E061E00E945C0487E990E00E94C1
S1130A9076042AC00033D1F00E940C04C4010E94E1
S1130AA0760482E061E00E945C04C3010E94760443
S1130AB0802F0E94EE038FEF99E6A8E181509040C9
S1130AC0A040E1F700C0000001508DCF0E940C044B
S1130AD087EA90E00E94760482E061E00E945C0470
S1130AE082EC90E00E94760480E090E0DF91CF9168
S1130AF01F910F91FF90EF90DF90BF90AF909F9068
S1130B008F907F906F905F904F903F902F900895BB
S1070B10F894FFCF83
S1130B143738392F3435362A3132332D41303D2B91
S1130B2473657420706173733A2000656E74657222
S1130B3420706173733A200072696768742070616D
S1130B447373776F72640020736166652069732020
S1130B546F70656E65640077726F6E672070617381
S1130B6473776F726400207472696573206C6566B0
S1130B747400207361666520697320636C6F736508
S1050B84640007
S9030000FC
