:100000000C942A000C9447000C9447000C94470071
:100010000C9447000C9447000C9447000C94470044
:100020000C9447000C9447000C9447000C94470034
:100030000C9447000C9447000C9447000C94470024
:100040000C9447000C9447000C9447000C94470014
:100050000C94470011241FBECFE5D8E0DEBFCDBF12
:1000600010E0A0E6B0E0EEE6F6E002C005900D92EA
:10007000AA36B107D9F710E0AAE6B0E001C01D9298
:10008000AA36B107E1F70E94F7020C9435030C94ED
:100090000000843409F471C0853448F4823499F145
:1000A000833408F04DC0813409F083C00FC082361C
:1000B00051F1833620F4813609F07BC007C08336C6
:1000C00009F43EC0843609F074C057C0413069F469
:1000D0002AB381E090E0AC0102C0440F551F6A953D
:1000E000E2F7BA01622B6ABB08952AB381E090E07F
:1000F000AC0102C0440F551F6A95E2F7BA01609542
:1001000062236ABB0895413069F427B381E090E02F
:10011000AC0102C0440F551F6A95E2F7BA01622B89
:1001200067BB089527B381E090E0AC0102C0440FA3
:10013000551F6A95E2F7BA016095622367BB08957F
:10014000413069F424B381E090E0AC0102C0440F77
:10015000551F6A95E2F7BA01622B64BB089524B378
:1001600081E090E0AC0102C0440F551F6A95E2F7B0
:10017000BA016095622364BB0895413069F427B3E6
:1001800081E090E0AC0102C0440F551F6A95E2F790
:10019000BA01622B67BB089527B381E090E0AC0100
:1001A00002C0440F551F6A95E2F7BA0160956223B9
:1001B00067BB0895843409F471C0853448F48234EF
:1001C00099F1833408F04DC0813409F083C00FC029
:1001D000823651F1833620F4813609F07BC007C0A6
:1001E000833609F43EC0843609F074C057C04130EC
:1001F00069F42BB381E090E0AC0102C0440F551FBD
:100200006A95E2F7BA01622B6BBB08952BB381E0CC
:1002100090E0AC0102C0440F551F6A95E2F7BA01A5
:10022000609562236BBB0895413069F428B381E087
:1002300090E0AC0102C0440F551F6A95E2F7BA0185
:10024000622B68BB089528B381E090E0AC0102C046
:10025000440F551F6A95E2F7BA016095622368BBA7
:100260000895413069F425B381E090E0AC0102C00B
:10027000440F551F6A95E2F7BA01622B65BB0895DA
:1002800025B381E090E0AC0102C0440F551F6A9590
:10029000E2F7BA016095622365BB0895413069F4C5
:1002A00022B381E090E0AC0102C0440F551F6A9573
:1002B000E2F7BA01622B62BB089522B381E090E0BD
:1002C000AC0102C0440F551F6A95E2F7BA01609570
:1002D000622362BB0895843409F43DC0853440F440
:1002E0008234F9F0833450F5813409F040C00CC0F9
:1002F0008236B9F0833618F48136C9F505C08336E5
:10030000E9F08436A1F527C02BB381E090E0AC0181
:1003100002C0440F551F6A95E2F7BA0162276BBB12
:10032000089528B381E090E0AC0102C0440F551F4E
:100330006A95E2F7BA01622768BB089525B381E0A8
:1003400090E0AC0102C0440F551F6A95E2F7BA0174
:10035000622765BB089522B381E090E0AC0102C042
:10036000440F551F6A95E2F7BA01622762BB0895F0
:10037000843409F44EC0853440F4823431F183343E
:10038000B0F5813409F057C00EC08236F1F08336E3
:1003900020F4813609F04FC006C0833641F184361F
:1003A00009F049C036C029B381E090E0062E02C0B2
:1003B000880F991F0A94E2F730E08223932302C04A
:1003C000959587956A95E2F7089526B381E090E0C8
:1003D000062E02C0880F991F0A94E2F730E08223AC
:1003E000932302C0959587956A95E2F7089523B304
:1003F00081E090E0062E02C0880F991F0A94E2F770
:1004000030E08223932302C0959587956A95E2F7A1
:10041000089520B381E090E0062E02C0880F991F56
:100420000A94E2F730E08223932302C095958795E2
:100430006A95E2F7089580E008958434D9F0853410
:1004400038F4823499F0833498F48134A1F40CC0E8
:10045000823661F0833618F4813669F405C083363C
:1004600039F0843641F406C06ABB089567BB08952D
:1004700064BB089561BB0895823461F0833418F43D
:10048000813469F405C0833439F0843441F406C002
:100490006BBB089568BB089565BB089562BB089562
:1004A000823461F0833418F4813471F405C08334EC
:1004B00039F0843449F406C089B3089586B30895A9
:1004C00083B3089580B3089580E00895843409F4D7
:1004D00071C0853448F4823499F1833408F04DC0FA
:1004E000813409F083C00FC0823651F1833620F485
:1004F000813609F07BC007C0833609F43EC08436DC
:1005000009F074C057C0413069F44BB321E030E0CA
:10051000C901062E02C0880F991F0A94E2F7842BA6
:100520008BBB10C04BB321E030E0C901062E02C0E6
:10053000880F991F0A94E2F7809584238BBB0FC024
:10054000413069F428B381E090E0AC0102C0440F6F
:10055000551F6A95E2F7BA01622B68BB089528B36C
:1005600081E090E0AC0102C0440F551F6A95E2F7AC
:10057000BA016095622368BB0895413069F425B3E0
:1005800081E090E0AC0102C0440F551F6A95E2F78C
:10059000BA01622B65BB089525B381E090E0AC0100
:1005A00002C0440F551F6A95E2F7BA0160956223B5
:1005B00065BB0895413069F422B381E090E0AC015D
:1005C00002C0440F551F6A95E2F7BA01622B62BB65
:1005D000089522B381E090E0AC0102C0440F551FA2
:1005E0006A95E2F7BA016095622362BB089584E4DC
:1005F0000E940F03C0E0D0E084E46C2F43E40E942B
:1006000013038FEF99E6A8E181509040A040E1F7F5
:1006100000C00000CF5FCA3078F3CD2FEDCF6FEF71
:100620000E941D020895CF93DF93CDB7DEB72A97BE
:100630000FB6F894DEBF0FBECDBFDE011196E0E627
:10064000F0E09AE001900D929150E1F7FE01E60F83
:10065000F11D61810E943C022A960FB6F894DEBF1C
:0E0660000FBECDBFDF91CF910895F894FFCF6C
:0A066E003F065B4F666D7D477F6F0E
:00000001FF
